:100000000C9491000C94B9000C94B9000C94B900B4
:100010000C94B9000C94B9000C9441090C94B900EB
:100020000C94B9000C94B9000C94B9000C94B9006C
:100030000C94B9000C94B9000C94B9000C94B9005C
:100040000C945E070C94B9000C94CE070C94A8078E
:100050000C942C090C94B9000C94B9000C94B900C0
:100060000C9400080C94B9000C94B9000C94B900DD
:100070000C94B9000C94B9000C94B9000C94B9001C
:100080000C94B9000C94B9000C94B9000C94B9000C
:100090000C94B9000C94B9000C94B9000C94B900FC
:1000A0000C94B9000C94B9000C94B9000C94B900EC
:1000B0000C94B90000000000240027002A002D0045
:1000C00000000000250028002B002E00040404047A
:1000D00004040404020202020202030303030303F2
:1000E00002020305050505010204081020408001F5
:1000F0000204081020010204081020408040010280
:1001000004080A0D0E09000302000004050800009F
:1001100000000000000000000000000000004B098B
:10012000110C11241FBECFEFD8E0DEBFCDBF23E0FE
:10013000A8E6B1E001C01D92AE35B207E1F711E0CB
:10014000A0E0B1E0EEE0FBE102C005900D92A83620
:10015000B107D9F710E0C0E9D0E004C02197FE0153
:100160000E944A0CCF38D107C9F70E94310A0C947B
:100170007A0D0C940000880F8093BA0008959B01BB
:10018000AC0160E072E18AE790E00E94280C205107
:10019000310941095109569547953795279520937F
:1001A000B8000895882321F085EC8093BC00089561
:1001B00085E8FBCF85ED8093BC008091BC0084FD79
:1001C000FCCF1092B201089585EC8093BC00109290
:1001D000B2010895282F30E0F901EE5FFE4F9491AF
:1001E000F901E951FF4F849124533F4FF9012491C4
:1001F000222309F42EC09923D9F092509D30C0F4E7
:10020000E92FF0E0EA5FFE4F0C944A0C4C015001DC
:1002100013012A01180118012E01340138013E0191
:10022000180142014801909180009F7790938000CF
:10023000E22FF0E0EE0FFF1FE054FF4FA591B491C5
:100240009FB7F894EC9161112EC080958E238C930A
:100250009FBF0895909180009F7DE8CF9091B0005E
:100260009F779093B000E4CF9091B0009F7DF9CF3D
:10027000909190009F7790939000DACF90919000AA
:100280009F7DF9CF9091A0009F779093A000D0CF51
:100290009091A0009F7DF9CF94B59F7794BDC8CF72
:1002A00094B59F7DFBCF8E2BD2CF1092B20181E00F
:1002B0008093B4011092B30161E082E10E94EA00F0
:1002C00061E083E10E94EA00E9EBF0E080818E7F4B
:1002D000808380818D7F808380E28093B80085E475
:1002E0008093BC000895ECEBF0E080818A7B8083F2
:1002F00060E082E10E94EA0060E083E10C94EA00A1
:10030000AF92BF92CF92DF92EF92FF920F931F9323
:10031000CF93DF936C017B018B01040F151FEB0161
:100320005E01AE18BF08C017D10759F06991D60118
:10033000ED91FC910190F081E02DC6010995892B8A
:1003400079F7C501DF91CF911F910F91FF90EF9049
:10035000DF90CF90BF90AF900895FC01538D448DF6
:10036000252F30E0842F90E0821B930B541710F060
:10037000CF96089501970895FC01918D828D98176D
:1003800061F0A28DAE0FBF2FB11D5D968C91928D45
:100390009F5F9F73928F90E008958FEF9FEF089576
:1003A000FC01918D828D981731F0828DE80FF11D3F
:1003B000858D90E008958FEF9FEF0895FC01918D5A
:1003C000228D892F90E0805C9F4F821B91098F7353
:1003D0009927089589E092E00E94DE0121E0892BAF
:1003E00009F420E0822F0895FC01A48DA80FB92FF5
:1003F000B11DA35ABF4F2C91848D90E001968F734D
:100400009927848FA689B7892C93A089B1898C916B
:10041000837080648C93938D848D981306C00288BA
:10042000F389E02D80818F7D80830895EF92FF9284
:100430000F931F93CF93DF93EC0181E0888F9B8D07
:100440008C8D98131AC0E889F989808185FF15C0C1
:100450009FB7F894EE89FF896083E889F9898081E4
:100460008370806480839FBF81E090E0DF91CF91B3
:100470001F910F91FF90EF900895F62E0B8D10E0D5
:100480000F5F1F4F0F731127E02E8C8D8E110CC044
:100490000FB607FCFACFE889F989808185FFF5CF8F
:1004A000CE010E94F401F1CFEB8DEC0FFD2FF11D79
:1004B000E35AFF4FF0829FB7F8940B8FEA89FB89CC
:1004C00080818062CFCFCF93DF93EC01888D88232A
:1004D000B9F0AA89BB89E889F9898C9185FD03C0A7
:1004E000808186FD0DC00FB607FCF7CF8C9185FF8C
:1004F000F2CF808185FFEDCFCE010E94F401E9CFDC
:10050000DF91CF91089580E090E0892B29F00E943F
:10051000EA0181110E94000080E090E0892B49F0FF
:1005200080E090E0892B29F00E94000081110C945A
:100530000000089520918E01260F3327331F2132AA
:100540003105ECF42091B201FC0190E080E0243010
:1005500069F082E00895A0918E012191AC01425989
:100560005E4FA40FB52FB11D2C930196861798F3FB
:1005700080918E01680F60938E0180E0089581E084
:1005800008950F93413208F044C09091B201911147
:10059000FCCF92E09093B2010093B4019FEF90934F
:1005A000B1017093B6016093B5011092B801409308
:1005B000B7011092B9019091B901880F892B8093EE
:1005C000B9018091B301813011F51092B30180918E
:1005D000B9018093BB008091BC0083FDF8CF85EC0E
:1005E0008093BC00222321F08091B2018230D1F3AC
:1005F0008091B1018F3F79F08091B101803269F033
:100600008091B101803359F084E00F91089585EE17
:10061000E7CF81E0FACF80E0F8CF82E0F6CF83E049
:10062000F4CF4132E0F59091B2019111FCCF91E00D
:100630009093B2012093B4012FEF2093B1017093F6
:10064000B6016093B5011092B801240F2093B70151
:100650009093B9019091B901880F892B8093B901CA
:100660008091B3018130C9F41092B3018091B90136
:100670008093BB008091BC0083FDF8CF85EC809314
:10068000BC008091B2018130E1F38091B801841700
:1006900010F44091B801842F089585EEF0CF40E02A
:1006A000FACFE091C202F091C302309729F0109284
:1006B000BF021092C00209940895DC018091C40227
:1006C0009091C502892B19F19091BA028091BB02D9
:1006D0009817E8F090E0292F30E0261737076CF4E0
:1006E000FD01E20FF31F4081E091B802F091B902E1
:1006F000E20FF31F40839F5FEECF1092BA02609328
:10070000BB02E091C402F091C502CB0109940895A7
:100710000895DC015096EC91509751968C91519729
:10072000E81748F41E968D919C91E80FF92FF11D62
:10073000808190E008958FEF9FEF0895FC019089EC
:1007400081892FEF3FEF981740F4A685B785A90F51
:10075000B11D2C9130E09F5F908BC9010895FC0181
:1007600081899089891B990B0895CF92DF92EF922E
:10077000FF920F931F93CF93DF938C01CB017A01EC
:10078000D80157962C915797222389F0EB016B01E2
:10079000C40ED51ECC15DD0579F06991D801ED9117
:1007A000FC910190F081E02DC8010995F3CF989656
:1007B000ED91FC91642F0995C701DF91CF911F91B5
:1007C0000F91FF90EF90DF90CF900895CF93DF933C
:1007D0001F92CDB7DEB7FC01698387898823F9F0C2
:1007E0002689848595852817190654F081E090E0C4
:1007F0009383828390E080E00F90DF91CF91089502
:100800008981A58923893489A20FB32FB11D8C93C7
:1008100085898F5F858B868B81E090E0EDCF00A48A
:10082000F1A5E02D61E0CE0101960995F5CFCF93BA
:100830009091BB028091BA02981789F0C091BE01D5
:10084000C03468F48AEA92E00E949E03EC2FF0E044
:10085000E154FE4F8083CF5FC093BE01E9CF81E0BA
:100860008093FF01CF910895FC01DB014D915D91D3
:100870006D917C91139742835383648375831C9697
:100880008C911C9786871D968C911D9787871E9645
:100890008C911E97808B54964D915D916D917C91BA
:1008A0005797468B578B608F718F1F968C911F9730
:1008B000818B14968C911497868315968C9115973D
:1008C000878316968D919C911797918780871896AC
:1008D0008D919D910D90BC91A02D82879387A487C7
:1008E000B587089508958F929F92AF92BF92CF924D
:1008F000DF92EF92FF920F931F93CF93DF93EC0160
:100900005B014A011C828FB7F894C0900502D09019
:100910000602E0900702F09008028FBF8B859C854D
:10092000DC01ED91FC910084F185E02D0995892B86
:1009300011F5898D9A8DAB8DBC8D892B8A2B8B2BD4
:10094000D1F02FB7F8948091050290910602A09102
:100950000702B09108022FBF8C199D09AE09BF098B
:10096000498D5A8D6B8D7C8D84179507A607B70727
:10097000A8F281E052C00B851C858A0C9B1C650186
:100980007601EA18FB08C814D904B9F12FB7F89416
:100990008091050290910602A0910702B091080291
:1009A0002FBFF80180879187A287B387D801ED9187
:1009B000FC910284F385E02DC801099597FF3EC0A4
:1009C0002FB7F8948091050290910602A09107023A
:1009D000B09108022FBFF80140855185628573856B
:1009E000841B950BA60BB70B4481558166817781DB
:1009F00084179507A607B707C8F28D81882381F071
:100A0000E881F981008CF18DE02D21E0A701B5018D
:100A1000CE010995892B21F082E08C83F12CE12C09
:100A2000C701DF91CF911F910F91FF90EF90DF9061
:100A3000CF90BF90AF909F908F900895D6018D93E7
:100A40006D019ECFCF92DF92EF92FF920F931F9393
:100A5000CF93DF938C01EB016A01DC0115968C9139
:100A600015978130B1F0823031F1F801838594859A
:100A7000DC01ED91FC910280F381E02DA601BE0125
:100A8000DF91CF911F910F91FF90EF90DF90CF906A
:100A90000994ED91FC91008CF18DE02D20E07A011C
:100AA000B1E0EB1AF108A701C8010995FE01EE0DAE
:100AB000FF1D8083DACFED91FC91008CF18DE02D4C
:100AC00020E07A01B2E0EB1AF108A701C80109950C
:100AD000FE01EC0DFD1D31979083E8CF8F929F9220
:100AE000AF92BF92FF920F931F93CF93DF93EC01CE
:100AF000E881F9810684F785E02D09950B851C8531
:100B0000FD848F809884A984BA8460E874E88EE1BB
:100B100090E0A50194010E94280C2150310941095F
:100B200051095695479537952795D8015096ED91DF
:100B3000FC9182E080832115B0E13B07A8F0D80149
:100B40005096ED91FC91108260E472E48FE090E0A9
:100B5000A50194010E94280C215031094109510935
:100B60005695479537952795D8011C96ED91FC91A0
:100B70001D9730831E96ED91FC911F972083589608
:100B80001C9258975496ED91FC915597F08252968D
:100B9000ED91FC9153978081886980835296ED9105
:100BA000FC9180818F7D80838B8987FD2DC0082EED
:100BB000000C990BFC01E951FF4F249184539F4F86
:100BC000FC018491882399F090E0880F991FFC0123
:100BD000EC54FF4FA591B491FC01E054FF4F859177
:100BE00094918FB7F894EC91E22BEC938FBF6C89C2
:100BF0008B89DF91CF911F910F91FF90BF90AF90A4
:100C00009F908F900C94EA00DF91CF911F910F91EC
:100C1000FF90BF90AF909F908F900895CF93DF93F8
:100C2000EC016A96BC016E5F7F4FCE010E946E059B
:100C3000CE01DF91CF910895DC01FB0117964D9114
:100C40005D916D917C911A97408351836283738388
:100C500051968C915197848752968C9152978587A3
:100C600053968C915397868759964D915D916D91CE
:100C70007C915C97448B558B668B778B54968C91CB
:100C80005497878755964D915D916D917C915897BA
:100C9000408B518B628B738B16968C911697848345
:100CA00015968C91159785831B968D919C911C9719
:100CB000978386831D968D919D910D90BC91A02D5B
:100CC00080879187A287B3870895FC01DB014D914E
:100CD0005D916D917C9113974783508761877287EF
:100CE0001C968C911C97818B1D968C911D97828BE5
:100CF0001E968C911E97838B54964D915D916D91AC
:100D00007C915797418F528F638F748F1F968C9170
:100D10001F97848B50964D915D916D917C91539767
:100D2000458B568B678B708F14968C9114978683A6
:100D300015968C911597858316968D919C91179792
:100D40009487838718968D919D910D90BC91A02DCD
:100D500085879687A787B08B0895FB0133968FEF21
:100D60009FEF9F01261B370B2417350798F421911D
:100D7000822728E030E0DC01A170BB27969587959B
:100D8000AB2B21F0A1E08A27A0EA9A272150310954
:100D900091F7E7CF0895CF92DF92EF92FF920F93F2
:100DA0001F93CF93DF93CDB7DEB7C054D1090FB6F1
:100DB000F894DEBF0FBECDBF8C017B01DB01139623
:100DC0004C91FC018581882359F14A5FFE013596DB
:100DD0008CE3DF011D928A95E9F78AE5898385EA2C
:100DE0008A838DEF840F8B83F70180818C83BE0112
:100DF0006F5F7F4FFB0184E090E050E08417950720
:100E00008CF49F01261B370BD7011196CD90DC90F7
:100E1000D601A20FB31F2C91248301963196EECFF9
:100E20004C5FD4CFD801ED91FC910288F389E02D7D
:100E3000C8010995F7014781508565817681D80100
:100E4000ED91FC910488F589E02DC8010995F70121
:100E500093878287D80114968C91C05CDF4F0FB6C0
:100E6000F894DEBF0FBECDBFDF91CF911F910F91E0
:100E7000FF90EF90DF90CF9008950895CF93DF9388
:100E80001F92CDB7DEB76983DC01ED91FC9102883A
:100E9000F389E02D41E050E0BE016F5F7F4F09957F
:100EA0000F90DF91CF910895089590E080E008952C
:100EB0000E94750D0C94EC0C0C94EC0C1F920F928C
:100EC0000FB60F9211242F933F938F939F93AF935D
:100ED000BF938091050290910602A0910702B09104
:100EE00008023091040226E0230F2D3768F129E82B
:100EF000230F0396A11DB11D2093040280930502C8
:100F000090930602A0930702B0930802809100021A
:100F100090910102A0910202B09103020196A11DDD
:100F2000B11D8093000290930102A0930202B0933E
:100F30000302BF91AF919F918F913F912F910F909D
:100F40000FBE0F901F9018950296A11DB11DD4CF12
:100F50001F920F920FB60F9211242F933F934F932E
:100F60005F936F937F938F939F93AF93BF93EF9311
:100F7000FF9389E092E00E94F401FF91EF91BF910D
:100F8000AF919F918F917F916F915F914F913F9121
:100F90002F910F900FBE0F901F9018951F920F92D8
:100FA0000FB60F9211242F938F939F93EF93FF937C
:100FB000E0911902F0911A028081E0911F02F091F4
:100FC000200282FD1BC09081809122028F5F8F736F
:100FD00020912302821741F0E0912202F0E0E75FC6
:100FE000FD4F958F80932202FF91EF919F918F91FA
:100FF0002F910F900FBE0F901F9018958081F4CF06
:101000001F920F920FB60F9211242F933F934F937D
:101010005F936F937F938F939F93AF93BF93EF9360
:10102000FF938091B900887F803609F44CC008F0A6
:101030003FC0883209F4A8C018F5803109F49CC07B
:10104000B8F4882309F405C1883009F495C0FF91EC
:10105000EF91BF91AF919F918F917F916F915F9130
:101060004F913F912F910F900FBE0F901F901895A9
:10107000883109F489C0803251F78093B10115C0DD
:10108000803409F4A6C048F48033B9F38833F9F604
:101090008093B1010E94E400DACF803509F489C061
:1010A000883509F49EC0883491F60E94DA00CFCFCB
:1010B000883909F494C038F5883729F050F4883617
:1010C00011F0803721F683E08093B2011092B001D5
:1010D00057C0883809F483C0803919F0803809F086
:1010E000B6CF8091B001803208F079C0E091B001B4
:1010F00081E08E0F8093B0018091BB00F0E0E0575B
:10110000FE4F80833DC0803B39F0E0F4803A09F423
:1011100085C0883A09F09BCF84E08093B201109299
:101120008F0110928E01E091A802F091A902099519
:1011300080918E0181110FC081E080938E01109209
:101140006E0109C0803C09F482C0883C09F47FC06C
:10115000883B09F07CCFE0918F0181E08E0F809376
:101160008F01F0E0E259FE4F80818093BB009091A7
:101170008F0180918E0131C08091B9018093BB00B5
:1011800085EC8093BC0063CF9091B8018091B7014A
:101190009817B8F58091B5019091B601E091B8012A
:1011A00021E02E0F2093B801E80FF92FF11D808167
:1011B000E5CF2091B5013091B601E091B80181E011
:1011C0008E0F8093B8018091BB00E20FF32FF11DC9
:1011D00080839091B8018091B701981788F285E8D3
:1011E000D0CF2091B5013091B601E091B80181E0F6
:1011F0008E0F8093B8018091BB00E20FF32FF11D99
:1012000080838091B401811150CF81E08093B3013C
:1012100084EA8093BC001092B20119CF0E94E400CE
:101220008091B001803230F4E091B001F0E0E057FD
:10123000FE4F10826091B00170E0E091A602F09143
:10124000A70280E991E009951092B00100CF85ECEA
:10125000E0CF1092B10129CF1F920F920FB60F92DB
:1012600011248F93EF93FF93E0E6F0E08081806498
:101270008083FF91EF918F910F900FBE0F901F9081
:1012800018951F920F920FB60F9211240F900FBE58
:101290000F901F9018950F931F93CF93DF93E9E062
:1012A000F2E01382128288EE93E0A0E0B0E0848343
:1012B0009583A683B7832EE131E03183208325EC2B
:1012C00030E03587248724EC30E03787268720EC10
:1012D00030E0318B208B21EC30E0338B228B22EC01
:1012E00030E0358B248B26EC30E0378B268B118E4B
:1012F000128E138E148ECAEAD2E01B821A828C835D
:101300009D83AE83BF8380E391E09983888380E2ED
:1013100090E09D878C870E94500C9F878E87188A4B
:10132000198A1A8A80E290E00E94500C9C8B8B8B69
:101330001D8A1E8A1F8A85E591E09D8F8C8F83E729
:1013400091E09F8F8E8F8BEB90E099A388A38FEB1A
:1013500090E09BA38AA381E193E09DA38CA381EC01
:1013600092E09FA38EA38AE992E099A788A782EDD5
:1013700090E09BA78AA78AED90E09DA78CA784EEBA
:1013800090E09FA78EA78DE593E09093A7028093AE
:10139000A60281E593E09093A9028093A802EAED6A
:1013A000F2E080E691E09183808346E050E060E0E7
:1013B00070E042875387648775878FEF86878787BA
:1013C000808B118A02E310E020E030E0028B138B67
:1013D000248B358B068B178B208F318F91E0968372
:1013E00000E012EC21E030E0028313832483358394
:1013F0001782158E148E168E178E10A211A212A2AD
:1014000013A214A216A215A247A350A761A772A700
:1014100083A784A785A716A617A610AA11AA12AAA1
:1014200013AA14AA15AA16AA82E491E0938F828FB8
:10143000E1E1F3E087E0DF011D928A95E9F7E8E159
:10144000F3E080E4DF011D928A95E9F780E09AE5F8
:101450009093590380935803DF91CF911F910F917F
:101460000895CF93DF93CDB7DEB7CD54D1090FB632
:10147000F894DEBF0FBECDBF789484B5836084BD81
:1014800085B5836085BD80916E00816080936E001C
:1014900082E080938100809181008160809381004F
:1014A000809180008160809380008091B100846091
:1014B0008093B1008091B00081608093B0008091F2
:1014C000910083608093910080919000816080936F
:1014D00090008091A10083608093A1008091A00082
:1014E00081608093A00086E880937A001092C1000A
:1014F000F89484B7877F84BF109260008091600069
:101500008861809360008DE08093600078941092F1
:10151000BA021092BB021092BF021092C002E09178
:10152000C602F091C7020995E091CA02F091CB0280
:1015300081E3099586E090E0A0E0B0E089879A8792
:10154000AB87BC878FEF8D878E878F87188A82E362
:1015500090E0A0E0B0E0898B9A8BAB8BBC8B81E0F4
:101560008D8380E092ECA1E0B0E089839A83AB8325
:10157000BC831E8289E092E098878F838AE090E0A6
:10158000A0E0B0E08D8B9E8BAF8BB88F9E012F5F5C
:101590003F4F7901B9018AED92E00E9434046CED6D
:1015A00072E084EF92E00E946E0584EF92E09093E7
:1015B000BB018093BA018091C10080648093C10017
:1015C00087E194E09093C5028093C4028E010F5B83
:1015D0001F4FE2E8DE2EF3E04F2E512CA0E4AA2E9E
:1015E000B12CB6E02B2E312C4E0133E0830E911C32
:1015F0008091FF01882379F08091BF018A3009F43E
:1016000071C060F4882309F4FFC08930C9F11092D9
:10161000BE011092FF010E948302EACF8C3009F4D0
:10162000E6C008F47EC08D3091F74091C101509121
:10163000C2015427452754272091C3013091C4018A
:101640003227232732276091C5018091BA019091FA
:10165000BB01F8011182108274EDC72EC1827AE5B8
:101660007283A5EAA38314826583568347833087F8
:1016700021871B830A83EAE0F0E0FD83EC8340C00E
:10168000E091C1012091C2018091BD01281304C0E5
:101690008091BC01E81721F0E093BC012093BD01CB
:1016A0008091BA019091BB01F0E0E45FFE4F308180
:1016B000230FD801E6E01D92EA95E9F7E4E8D801A6
:1016C0001196EC931197FAE51296FC93129731E07C
:1016D00013963C93139715962C931B830A833D8294
:1016E0002C820EC02091C1018091BA019091BB0162
:1016F000F8011082D18222831B830A835D824C828F
:101700009C012C5D3F4F3F832E83B986A886D982EA
:10171000DC01ED91FC910688F789E02DB701099570
:1017200076CF6DB67EB64091C1015091C20154276B
:10173000452754272091C30130E0EDB7FEB7E21BE7
:10174000F30B0FB6F894FEBF0FBEEDBF6DB77EB7BB
:101750006F5F7F4FDB01EFEBF1E0CF018F5B9140DB
:101760008217930724F485818D933196F6CF80916B
:10177000BA019091BB01D401EEE31D92EA95E9F71D
:1017800059834A83F40142E050E02E5F3F4F4217F5
:10179000530750F4DB01CD90BD01C1924C3351058C
:1017A00019F04F5F5F4FF3CFD8011296FC92EE9283
:1017B00011971496BC92AE9213979C012C5D3F4FEB
:1017C00016963C932E9315971896BC92AE92179747
:1017D000DC92DC01ED91FC910688F789E02DB801DF
:1017E00009950FB6F8947EBE0FBE6DBE10CF8091E6
:1017F000BA019091BB0126E0E6E0F1E0D80101904A
:101800000D922A95E1F769CFF89484B7877F84BF5A
:101810008091600088618093600088E08093600020
:10182000FFCF80E391E09093AB028093AA02809176
:10183000B8029091B902009711F00E94EC0C8091CF
:10184000BD029091BE02009711F00C94EC0C08952B
:10185000A1E21A2EAA1BBB1BFD010DC0AA1FBB1FB4
:10186000EE1FFF1FA217B307E407F50720F0A21B26
:10187000B30BE40BF50B661F771F881F991F1A9493
:1018800069F760957095809590959B01AC01BD01BD
:10189000CF010895EE0FFF1F0590F491E02D0994FC
:1018A0000F931F93CF93DF938230910510F482E062
:1018B00090E0E0915C03F0915D0330E020E0B0E067
:1018C000A0E0309799F42115310509F44AC0281B8E
:1018D000390B24303105D8F58A819B81611571055A
:1018E00089F1FB0193838283FE0111C04081518104
:1018F0000281138148175907E0F04817590799F4F6
:10190000109761F012960C93129713961C933296CF
:10191000CF01DF91CF911F910F91089500935C0348
:1019200010935D03F4CF2115310551F04217530791
:1019300038F0A901DB019A01BD01DF01F801C1CF37
:10194000EF01F9CF90935D0380935C03CDCFFE014F
:10195000E20FF31F81939193225031093983288339
:10196000D7CF20915A0330915B03232B41F4209170
:1019700002013091030130935B0320935A032091BD
:101980000001309101012115310541F42DB73EB719
:101990004091040150910501241B350BE0915A033D
:1019A000F0915B03E217F307A0F42E1B3F0B2817FF
:1019B000390778F0AC014E5F5F4F2417350748F0C8
:1019C0004E0F5F1F50935B0340935A038193919393
:1019D0009FCFF0E0E0E09CCFCF93DF930097E9F05A
:1019E000FC01329713821282A0915C03B0915D03D7
:1019F000ED0130E020E01097A1F420813181820FC9
:101A0000931F20915A0330915B032817390709F07F
:101A100061C0F0935B03E0935A03DF91CF91089587
:101A2000EA01CE17DF07E8F54A815B819E01411587
:101A30005105B1F7E901FB83EA8349915991C40F3C
:101A4000D51FEC17FD0761F4808191810296840F08
:101A5000951FE90199838883828193819B838A837F
:101A6000F0E0E0E012968D919C9113970097B9F504
:101A70002D913C911197CD010296820F931F2091D9
:101A80005A0330915B032817390739F6309751F51F
:101A900010925D0310925C03B0935B03A0935A0312
:101AA000BCCFD383C28340815181840F951FC81757
:101AB000D90761F44E5F5F4F88819981480F591FA4
:101AC000518340838A819B819383828321153105D1
:101AD00009F0B0CFF0935D03E0935C039ECFFD016E
:101AE000DC01C0CF13821282D7CF81E090E0F8945E
:101AF0000C947A0D10E0C0E9D0E004C0FE010E9411
:0E1B00004A0C2196C139D107C9F7F894FFCFDE
:101B0E0000005E038000000455AA5AA500010206DB
:101B1E000B1619260F121E23242500000000160294
:101B2E008001AD016302DE01BC01D00100000000A6
:101B3E00E603B50355078803AF039E038903000030
:101B4E0000003E078001550754073D075C076E05F0
:101B5E0065061C0622057304CB06AD0600000000C8
:081B6E0072045A0734040E064C
:00000001FF
