:100000000C9497000C94BF000C94BF000C94010654
:100010000C9401060C9401060C94A5070C94BF00E7
:100020000C94BF000C94BF000C94BF000C94BF0054
:100030000C94BF000C94BF000C94BF000C94BF0044
:100040000C945F050C94BF000C94BF000C94BF008F
:100050000C94BF000C94BF000C94BF000C94BF0024
:100060000C9479060C94BF000C94BF000C9401060C
:100070000C94CF050C94A9050C94BF000C94BF0000
:100080000C94BF000C94BF000C94BF000C94BF00F4
:100090000C94BF000C94BF000C94BF000C94BF00E4
:1000A0000C94BF000C94BF000C94BF000C94BF00D4
:1000B0000C94BF0000000000240027002A002D003F
:1000C0000A0D0E09000302000004050800000000EC
:1000D00000000000000000000000000000000023FD
:1000E00000260029002C0000000000250028002B1D
:1000F000002E0004040404040404040202020202A8
:1001000002030303030303020203050505050102BD
:100110000408102040800102040810200102040895
:1001200010204080400102040800E107AF071124BD
:100130001FBECFEFD8E0DEBFCDBF23E0AEE3B1E01E
:1001400001C01D92AA31B207E1F711E0A0E0B1E0D1
:10015000EEECFBE102C005900D92AE33B107D9F78A
:1001600010E0C6E9D0E004C02197FE010E94D00B48
:10017000C539D107C9F70E9410090C94DA0D0C9407
:100180000000880F8093BA0008959B01AC0160E0E5
:1001900072E18AE790E00E94AE0B205131094109DB
:1001A000510956954795379527952093B80008959E
:1001B000882321F085EC8093BC00089585E8FBCF6F
:1001C00085ED8093BC008091BC0084FDFCCF109233
:1001D0008801089585EC8093BC00109288010895F1
:1001E0000000000087EB92E00197F1F7089582503C
:1001F0008D3008F03EC0E82FF0E0EF5FFE4F0C942A
:10020000D00B36013A010E011401390139011801F0
:100210001E012201280139012C0132018091800048
:100220008F77809380000895809180008F7DF9CF33
:100230008091B0008F778093B00008958091B000D6
:100240008F7DF9CF809190008F77809390000895F3
:10025000809190008F7DF9CF8091A0008F7780935F
:10026000A00008958091A0008F7DF9CF84B58F778D
:1002700084BD089584B58F7DFBCF1F93CF93DF930B
:10028000282F30E0F901E054FF4F8491F901E25F3B
:10029000FE4FD491F901ED50FF4FC491CC23A9F04A
:1002A000162F81110E94F700EC2FF0E0EE0FFF1FD8
:1002B000E951FF4FA591B4918FB7F894EC911111CA
:1002C00008C0D095DE23DC938FBFDF91CF911F91C3
:1002D0000895DE2BF8CF1092880181E080938A0187
:1002E0001092890161E082E10E943D0161E083E1B9
:1002F0000E943D01E9EBF0E080818E7F8083808168
:100300008D7F808380E28093B80085E48093BC0079
:100310000895ECEBF0E080818A7B808360E082E1ED
:100320000E943D0160E083E10C943D01CF93DF9397
:1003300090E0FC01E25FFE4F24918D509F4FFC0145
:1003400084918823D1F090E0880F991FFC01EC5430
:10035000FF4FA591B491FC01E951FF4FC591D49194
:1003600061110EC09FB7F8948C91E22FE0958E2317
:100370008C932881E223E8839FBFDF91CF9108957A
:100380008FB7F894EC91E22BEC938FBFF6CFAF923E
:10039000BF92CF92DF92EF92FF920F931F93CF9372
:1003A000DF936C017B018B01040F151FEB015E01D4
:1003B000AE18BF08C017D10759F06991D601ED9169
:1003C000FC910190F081E02DC6010995892B79F708
:1003D000C501DF91CF911F910F91FF90EF90DF90BA
:1003E000CF90BF90AF900895FC01538D448D252F81
:1003F00030E0842F90E0821B930B541710F0CF96BF
:10040000089501970895FC01918D828D981761F0F0
:10041000A28DAE0FBF2FB11D5D968C91928D9F5F07
:100420009F73928F90E008958FEF9FEF0895FC01E6
:10043000918D828D981731F0828DE80FF11D858D99
:1004400090E008958FEF9FEF0895FC01918D228D2C
:10045000892F90E0805C9F4F821B91098F739927B1
:10046000089584E292E00E94250221E0892B09F49C
:1004700020E0822F0895FC01A48DA80FB92FB11D93
:10048000A35ABF4F2C91848D90E001968F739927CA
:10049000848FA689B7892C93A089B1898C918370A8
:1004A00080648C93938D848D981306C00288F389A1
:1004B000E02D80818F7D80830895EF92FF920F93CE
:1004C0001F93CF93DF93EC0181E0888F9B8D8C8D00
:1004D00098131AC0E889F989808185FF15C09FB7F4
:1004E000F894EE89FF896083E889F98980818370B7
:1004F000806480839FBF81E090E0DF91CF911F9166
:100500000F91FF90EF900895F62E0B8D10E00F5F86
:100510001F4F0F731127E02E8C8D8E110CC00FB65C
:1005200007FCFACFE889F989808185FFF5CFCE01F4
:100530000E943B02F1CFEB8DEC0FFD2FF11DE35A32
:10054000FF4FF0829FB7F8940B8FEA89FB89808177
:100550008062CFCFCF93DF93EC01888D8823B9F0F1
:10056000AA89BB89E889F9898C9185FD03C08081BE
:1005700086FD0DC00FB607FCF7CF8C9185FFF2CF3B
:10058000808185FFEDCFCE010E943B02E9CFDF9154
:10059000CF91089580E090E0892B49F080E090E0D1
:1005A000892B29F00E94000081110E94000080E048
:1005B00090E0892B29F00E94310281110C940000F7
:1005C00008952091C5023091C6022817390771F4A9
:1005D0009091D1018091D001981741F0E091D10123
:1005E000F0E0E057FE4F808190E008958FEF9FEF9D
:1005F00008950895EF92FF920F931F93CF93DF9387
:10060000DC015C96ED90FC905D97E114F10479F4C7
:1006100081E090E013969C938E93129790E080E097
:10062000DF91CF911F910F91FF90EF900895519618
:10063000ED91FC91529750968C915097982F9095F0
:100640000FB75E962C915E97122F127021FD609568
:10065000F8942081112319F1282B2083E701219799
:10066000F1F728E0462F50E0308160FF1AC0382BA8
:100670003083E7012197F1F7BA017595679521500D
:1006800089F7112381F08081892380830FBF5C96D5
:100690008D919C910197F1F781E090E0C1CF2923E2
:1006A000DCCF3923E5CF9081892BEFCF2091C50294
:1006B0003091C6022817390761F48091D00120914A
:1006C000D10190E0805C9F4F821B91098F73992725
:1006D000089590E080E008952091C5023091C6020F
:1006E00028173907B9F49091D1018091D00198175A
:1006F00089F0E091D101F0E0E057FE4F8081209138
:10070000D10130E02F5F3F4F2F7333272093D1016A
:1007100090E008958FEF9FEF089520916401260FD8
:100720003327331F21323105ECF420918801FC017D
:1007300090E080E0243069F082E00895A0916401A7
:100740002191AC014C5B5E4FA40FB52FB11D2C93D2
:100750000196861798F380916401680F6093640195
:1007600080E0089581E008950F93413208F044C07D
:10077000909188019111FCCF92E0909388010093B1
:100780008A019FEF9093870170938C0160938B0196
:1007900010928E0140938D0110928F0190918F01E4
:1007A000880F892B80938F0180918901813011F509
:1007B0001092890180918F018093BB008091BC00D1
:1007C00083FDF8CF85EC8093BC00222321F080913B
:1007D00088018230D1F3809187018F3F79F0809139
:1007E0008701803269F080918701803359F084E07D
:1007F0000F91089585EEE7CF81E0FACF80E0F8CF42
:1008000082E0F6CF83E0F4CF4132E0F590918801A9
:100810009111FCCF91E09093880120938A012FEFF2
:100820002093870170938C0160938B0110928E014D
:10083000240F20938D0190938F0190918F01880F49
:10084000892B80938F01809189018130C9F41092A6
:10085000890180918F018093BB008091BC0083FD52
:10086000F8CF85EC8093BC00809188018130E1F362
:1008700080918E01841710F440918E01842F089589
:1008800085EEF0CF40E0FACFE091FE02F091FF025A
:10089000309729F01092FB021092FC0209940895FF
:1008A000DC018091000390910103892B19F1909153
:1008B000F6028091F7029817E8F090E0292F30E0D7
:1008C000261737076CF4FD01E20FF31F4081E0911A
:1008D000F402F091F502E20FF31F40839F5FEECF29
:1008E0001092F6026093F702E0910003F091010389
:1008F000CB0109940895DC015096EC9150975196E4
:100900008C915197E81748F41E968D919C91E80FB1
:10091000F92FF11D808190E008958FEF9FEF0895EA
:10092000FC01908981892FEF3FEF981740F4A6854D
:10093000B785A90FB11D2C9130E09F5F908BC90145
:100940000895FC0181899089891B990B0895CF92A4
:10095000DF92EF92FF920F931F93CF93DF938C015F
:10096000CB017A01D80157962C915797222389F011
:10097000EB016B01C40ED51ECC15DD0579F0699134
:10098000D801ED91FC910190F081E02DC80109950D
:10099000F3CF9896ED91FC91642F0995C701DF91F3
:1009A000CF911F910F91FF90EF90DF90CF9008951E
:1009B000CF93DF931F92CDB7DEB7FC0169838789A0
:1009C0008823F9F02689848595852817190654F01F
:1009D00081E090E09383828390E080E00F90DF914C
:1009E000CF9108958981A58923893489A20FB32FD6
:1009F000B11D8C9385898F5F858B868B81E090E01C
:100A0000EDCF00A4F1A5E02D61E0CE01019609959E
:100A1000F5CFCF93DF93C7E1D2E0688186EE92E015
:100A20000E94D804698186EE92E00E94D8046A810F
:100A300086EE92E00E94D8046B8186EE92E00E94DE
:100A4000D8046091160286EE92E00E94D80460916C
:100A5000150286EE92E00E94D8046091D20186EEE3
:100A600092E00E94D804E0E6F0E080818064808318
:100A70001092D201DF91CF9108959091F702809169
:100A8000F602981781F086EE92E00E949004E091C1
:100A9000D301F0E0EC52FE4F80838091D3018F5F51
:100AA0008093D301EACF80916000806480936000DE
:100AB00081E080931402089590E080E008951F92F1
:100AC0000F920FB60F9211242F933F938F939F9302
:100AD000AF93BF938091200290912102A0912202B6
:100AE000B091230230911F0226E0230F2D3768F1C9
:100AF00029E8230F0396A11DB11D20931F028093A7
:100B0000200290932102A0932202B09323028091AD
:100B10001B0290911C02A0911D02B0911E02019631
:100B2000A11DB11D80931B0290931C02A0931D0276
:100B3000B0931E02BF91AF919F918F913F912F91E2
:100B40000F900FBE0F901F9018950296A11DB11D1A
:100B5000D4CF1F920F920FB60F9211242F933F9371
:100B60004F935F936F937F938F939F93AF93BF93B5
:100B7000EF93FF9384E292E00E943B02FF91EF919A
:100B8000BF91AF919F918F917F916F915F914F91A5
:100B90003F912F910F900FBE0F901F9018951F92AD
:100BA0000F920FB60F9211242F938F939F93EF9371
:100BB000FF93E0913402F09135028081E0913A0296
:100BC000F0913B0282FD1BC0908180913D028F5FBE
:100BD0008F7320913E02821741F0E0913D02F0E0D8
:100BE000EC5DFD4F958F80933D02FF91EF919F91BA
:100BF0008F912F910F900FBE0F901F9018958081AD
:100C0000F4CF1F920F920FB60F9211242F933F93A0
:100C10004F935F936F937F938F939F93AF93BF9304
:100C2000EF93FF93E091C502F091C602309749F02F
:100C3000A685B7858585968D91FF14C09C918923E3
:100C4000A1F4FF91EF91BF91AF919F918F917F910F
:100C50006F915F914F913F912F910F900FBE0F9029
:100C60001F9018959C91892361F7A389B4899C9161
:100C70008589809589238C93868997890197F1F7D7
:100C8000608D718DA685B785558538E020E0CB0154
:100C90000197F1F7822F90E095958795282F4C9139
:100CA000452309F02068315091F7868D81FD20950C
:100CB0008091D00190E001968F7399273091D101F6
:100CC000381799F0A091D001B0E0A057BE4F2C93F7
:100CD0008093D001828D938D0197F1F7A389B48918
:100CE0008C919589892B8C93ACCF868D8160868F72
:100CF000F1CF1F920F920FB60F9211242F933F93B3
:100D00004F935F936F937F938F939F93AF93BF9313
:100D1000EF93FF938091B900887F803609F44CC02F
:100D200008F03FC0883209F4A8C018F5803109F4F2
:100D30009CC0B8F4882309F405C1883009F495C033
:100D4000FF91EF91BF91AF919F918F917F916F91A3
:100D50005F914F913F912F910F900FBE0F901F9079
:100D60001895883109F489C0803251F78093870142
:100D700015C0803409F4A6C048F48033B9F3883331
:100D8000F9F6809387010E94EA00DACF803509F4F2
:100D900089C0883509F49EC0883491F60E94E0002D
:100DA000CFCF883909F494C038F5883729F050F44A
:100DB000883611F0803721F683E080938801109205
:100DC000860157C0883809F483C0803919F080380B
:100DD00009F0B6CF80918601803208F079C0E091A9
:100DE000860181E08E0F809386018091BB00F0E048
:100DF000EA59FE4F80833DC0803B39F0E0F4803AF1
:100E000009F485C0883A09F09BCF84E0809388017B
:100E10001092650110926401E091C302F091C40246
:100E200009958091640181110FC081E08093640174
:100E30001092440109C0803C09F482C0883C09F446
:100E40007FC0883B09F07CCFE091650181E08E0F87
:100E500080936501F0E0EC5BFE4F80818093BB00E6
:100E6000909165018091640131C080918F018093E0
:100E7000BB0085EC8093BC0063CF90918E01809184
:100E80008D019817B8F580918B0190918C01E091BC
:100E90008E0121E02E0F20938E01E80FF92FF11D16
:100EA0008081E5CF20918B0130918C01E0918E0102
:100EB00081E08E0F80938E018091BB00E20FF32FB3
:100EC000F11D808390918E0180918D01981788F299
:100ED00085E8D0CF20918B0130918C01E0918E017B
:100EE00081E08E0F80938E018091BB00E20FF32F83
:100EF000F11D808380918A01811150CF81E0809320
:100F0000890184EA8093BC001092880119CF0E9465
:100F1000EA0080918601803230F4E0918601F0E0B1
:100F2000EA59FE4F10826091860170E0E091C102A3
:100F3000F091C20286E691E009951092860100CFF9
:100F400085ECE0CF1092870129CF1F920F920FB648
:100F50000F9211240F900FBE0F901F9018958DE1E6
:100F600091E09093C8028093C7028091C50290914E
:100F7000C602875C924071F4E091DA02F091DB02E4
:100F800090818091DC028095892380831092C60233
:100F90001092C5028FE291E09093E7028093E602FF
:100FA0008091F4029091F502009711F00E94510D8A
:100FB0008091F9029091FA02009711F00C94510D72
:100FC0000895CF92DF92EF92FF9210922702109233
:100FD000260298EEC92E93E0D92EE12CF12CC09276
:100FE0002802D0922902E0922A02F0922B028BE092
:100FF00091E090932502809324028DEC90E09093F1
:101000003102809330028CEC90E090933302809315
:10101000320288EC90E0909335028093340289ECA0
:1010200090E090933702809336028AEC90E09093A0
:101030003902809338028EEC90E090933B028093CB
:101040003A0210923D0210923E0210923F0210921C
:1010500040021092E9021092E802C092EA02D09295
:10106000EB02E092EC02F092ED028FE291E09093BD
:10107000E7028093E60280E290E09093F30280938F
:10108000F2020E94B50C9093F5028093F402109244
:10109000F6021092F7021092F80280E290E00E94AD
:1010A000B50C9093FA028093F9021092FB02109211
:1010B000FC021092FD028BE691E090930303809373
:1010C000020389E891E0909305038093040381EC87
:1010D00090E0909307038093060385EC90E0909353
:1010E00009038093080384E094E090930B038093BA
:1010F0000A0384EB93E090930D0380930C038DE837
:1011000093E090930F0380930E0388ED90E090930B
:1011100011038093100380EE90E09093130380936B
:1011200012038AEE90E0909315038093140380E5F8
:1011300094E09093C2028093C10284E494E090937F
:10114000C4028093C3021092CA021092C902C092D4
:10115000CB02D092CC02E092CD02F092CE028DE191
:1011600091E09093C8028093C7021092DE02109221
:10117000DD021092E0021092DF021092E202109261
:10118000E1021092E4021092E3026091E5026E7FA8
:101190006D7F6093E5026695617081E068278BE062
:1011A0000E943D0161E08BE00E949601E9E1F1E0DF
:1011B000E491E093D702EEEFF0E0E491F0E0EE0F7F
:1011C000FF1FE951FF4F859194919093D90280932D
:1011D000D80260E08CE00E9496018091E50281FDDA
:1011E00004C061E08CE00E943D018CE08093D3025A
:1011F000EAE1F1E0E491E093D402EFEFF0E0E49172
:10120000F0E0EE0FFF1FE552FF4F85919491909310
:10121000D6028093D502FF90EF90DF90CF90089593
:10122000CF93DF93CDB7DEB7789484B5836084BD68
:1012300085B5836085BD80916E00816080936E006E
:1012400092E0909381008091810081608093810081
:10125000809180008160809380008091B1008460E3
:101260008093B1008091B00081608093B000809144
:1012700091008360809391008091900081608093C1
:1012800090008091A10083608093A1008091A000D4
:1012900081608093A00086E880937A001092C1005C
:1012A000F89484B7877F84BF1092600080916000BB
:1012B0008861809360008DE0809360007894E09175
:1012C0003402F09135029083E0913002F0913102C6
:1012D0001082E0913202F091330287E6808310920F
:1012E0003C02E0913802F091390286E08083E0917F
:1012F0003602F0913702808188698083E09136025E
:10130000F091370280818F7D80831092F6021092D7
:10131000F7021092FB021092FC02E0910203F0919E
:1013200003030995E0910603F091070380E3099513
:101330008DE395E0909301038093000389E095E0AD
:101340009093FF028093FE0260E08EE00E9496017F
:1013500011E00EE43EEC832E30E0932E4CE1242E7F
:1013600041E0342E80911402882389F08091D401C9
:10137000813039F008F4EAC0823009F4BCC0813110
:1013800011F41093D201109214021092D30125E0AF
:10139000E22EF12C412C512C320100937C000E9452
:1013A000F00080917A00806480937A0080917A00C6
:1013B00086FDFCCF609178007091790090E080E02C
:1013C0000E94B30A9B01AC016AE979EA8CE894E4D3
:1013D0000E94430C9B01AC01C301B2010E94D70BD8
:1013E0002B013C0191E0E91AF108B9F620E030E068
:1013F00040EA50E4C301B2010E94430C5B016C015E
:101400001093000195E0E92EF12C412C512C320172
:1014100080910001E0E48E9FC001112482608093DE
:101420007C0080917A00806480937A0080917A00B9
:1014300086FDFCCF6091780070917900072E000C3A
:10144000880B990B0E94B50A9B01AC01C301B20144
:101450000E94D70B2B013C01F1E0EF1AF108C1F615
:101460008091600080648093600020E030EC4FE762
:1014700054E4C601B5010E94430C6B017C0120E0DD
:1014800030E040EA50E4C301B2010E94430C9B01EA
:10149000AC01C701B6010E94F00A2AEB38EE42E621
:1014A00050E40E94F00A6093170270931802809330
:1014B000190290931A02F4018491F101F490E1E091
:1014C000F1E0E490EE2079F081110E94F700EE2D1A
:1014D000F0E0EE0FFF1FE552FF4FA591B4918C9104
:1014E000F82281E009F480E080931602109315023F
:1014F0000E94CA0237CFEDB6FEB64091D50150E04A
:101500008DB79EB7841B950B0FB6F8949EBF0FBE88
:101510008DBF6DB77EB76F5F7F4FFB0190E080E0BE
:101520008417950738F4DC01AA52BE4F2C91219301
:101530000196F6CF84E292E00E94C7011093D20197
:101540000FB6F894FEBE0FBEEDBE1DCFF89484B763
:10155000877F84BF8091600088618093600088E00D
:1015600080936000FFCFE89409C097FB3EF490950C
:101570008095709561957F4F8F4F9F4F9923A9F06C
:10158000F92F96E9BB279395F695879577956795FB
:10159000B795F111F8CFFAF4BB0F11F460FF1BC03F
:1015A0006F5F7F4F8F4F9F4F16C0882311F096E9D2
:1015B00011C0772321F09EE8872F762F05C0662380
:1015C00071F096E8862F70E060E02AF09A95660F39
:1015D000771F881FDAF7880F9695879597F90895F2
:1015E0000E94030B0C94740B0E94660B38F00E944F
:1015F0006D0B20F0952311F00C945D0B0C94630B94
:1016000011240C94A80B0E94850B70F3959FC1F3D5
:10161000950F50E0551F629FF001729FBB27F00DA0
:10162000B11D639FAA27F00DB11DAA1F649F6627F5
:10163000B00DA11D661F829F2227B00DA11D621F44
:10164000739FB00DA11D621F839FA00D611D221FFE
:10165000749F3327A00D611D231F849F600D211DE2
:10166000822F762F6A2F11249F5750409AF0F1F065
:1016700088234AF0EE0FFF1FBB1F661F771F881FCE
:1016800091505040A9F79E3F510580F00C945D0B9E
:101690000C94A80B5F3FE4F3983ED4F386957795BE
:1016A0006795B795F795E7959F5FC1F7FE2B880F74
:1016B000911D9695879597F9089597F99F6780E80A
:1016C00070E060E008959FEF80EC089500240A9494
:1016D0001616170618060906089500240A9412160D
:1016E0001306140605060895092E0394000C11F440
:1016F000882352F0BB0F40F4BF2B11F460FF04C0ED
:101700006F5F7F4F8F4F9F4F089557FD9058440F45
:10171000551F59F05F3F71F04795880F97FB991F50
:1017200061F09F3F79F0879508951216130614060D
:10173000551FF2CF4695F1DF08C01616170618069A
:10174000991FF1CF86957105610508940895E89475
:10175000BB2766277727CB0197F90895A1E21A2EB8
:10176000AA1BBB1BFD010DC0AA1FBB1FEE1FFF1F45
:10177000A217B307E407F50720F0A21BB30BE40B95
:10178000F50B661F771F881F991F1A9469F76095DC
:101790007095809590959B01AC01BD01CF01089596
:1017A000EE0FFF1F0590F491E02D09945058BB27D0
:1017B000AA270E94EE0B0C94740B0E94660B38F063
:1017C0000E946D0B20F039F49F3F19F426F40C941D
:1017D000630B0EF4E095E7FB0C945D0BE92F0E9480
:1017E000850B58F3BA17620773078407950720F033
:1017F00079F4A6F50C94A70B0EF4E0950B2EBA2FF6
:10180000A02D0B01B90190010C01CA01A001112406
:10181000FF27591B99F0593F50F4503E68F11A16B2
:10182000F040A22F232F342F4427585FF3CF469543
:1018300037952795A795F0405395C9F77EF41F1665
:10184000BA0B620B730B840BBAF09150A1F0FF0F2F
:10185000BB1F661F771F881FC2F70EC0BA0F621F1B
:10186000731F841F48F4879577956795B795F7950B
:101870009E3F08F0B0CF9395880F08F09927EE0FA0
:101880009795879508950E94570C0C94740B0E94AD
:101890006D0B58F00E94660B40F029F45F3F29F071
:1018A0000C945D0B51110C94A80B0C94630B0E94CB
:1018B000850B68F39923B1F3552391F3951B550BD1
:1018C000BB27AA2762177307840738F09F5F5F4F13
:1018D000220F331F441FAA1FA9F335D00E2E3AF052
:1018E000E0E832D091505040E695001CCAF72BD06A
:1018F000FE2F29D0660F771F881FBB1F26173707BB
:101900004807AB07B0E809F0BB0B802DBF01FF27EC
:1019100093585F4F3AF09E3F510578F00C945D0B61
:101920000C94A80B5F3FE4F3983ED4F3869577952B
:101930006795B795F7959F5FC9F7880F911D9695A5
:10194000879597F90895E1E0660F771F881FBB1F01
:10195000621773078407BA0720F0621B730B840BAE
:10196000BA0BEE1F88F7E09508950F931F93CF935E
:10197000DF938230910510F482E090E0E09118034B
:10198000F091190330E020E0B0E0A0E0309799F446
:101990002115310509F44AC0281B390B24303105C3
:1019A000D8F58A819B816115710589F1FB019383CB
:1019B0008283FE0111C04081518102811381481749
:1019C0005907E0F04817590799F4109761F01296FB
:1019D0000C93129713961C933296CF01DF91CF91FF
:1019E0001F910F9108950093180310931903F4CFDA
:1019F0002115310551F04217530738F0A901DB01D9
:101A00009A01BD01DF01F801C1CFEF01F9CF909339
:101A1000190380931803CDCFFE01E20FF31F8193CA
:101A200091932250310939832883D7CF209116030F
:101A300030911703232B41F42091030130910401CD
:101A40003093170320931603209101013091020176
:101A50002115310541F42DB73EB740910501509154
:101A60000601241B350BE0911603F0911703E217D2
:101A7000F307A0F42E1B3F0B2817390778F0AC01B1
:101A80004E5F5F4F2417350748F04E0F5F1F50938E
:101A9000170340931603819391939FCFF0E0E0E00A
:101AA0009CCFCF93DF930097E9F0FC01329713822C
:101AB0001282A0911803B0911903ED0130E020E0EB
:101AC0001097A1F420813181820F931F209116037A
:101AD000309117032817390709F061C0F0931703F5
:101AE000E0931603DF91CF910895EA01CE17DF0747
:101AF000E8F54A815B819E0141155105B1F7E90185
:101B0000FB83EA8349915991C40FD51FEC17FD0758
:101B100061F4808191810296840F951FE901998378
:101B20008883828193819B838A83F0E0E0E0129630
:101B30008D919C9113970097B9F52D913C91119738
:101B4000CD010296820F931F209116033091170347
:101B50002817390739F6309751F51092190310926A
:101B60001803B0931703A0931603BCCFD383C2838B
:101B700040815181840F951FC817D90761F44E5FCA
:101B80005F4F88819981480F591F518340838A8113
:101B90009B81938382832115310509F0B0CFF093A7
:101BA0001903E09318039ECFFD01DC01C0CF13821F
:101BB0001282D7CF10E0C6E9D0E004C0FE010E9437
:0E1BC000D00B2196C739D107C9F7F894FFCF93
:101BCE000100001A038000000000005D02C701F44E
:101BDE0001AA0225020302170200000000FA02C742
:101BEE00015C05F90256036C03E10200000000D807
:0E1BFE0004A7045C05F902A10490047B040016
:00000001FF
